:100000000C940F030C9440030C9440030C94400395
:100010000C9440030C9440030C9440030C94400354
:100020000C9440030C9440030C9440030C94400344
:100030000C9440030C9440030C9440030C94400334
:100040000C9440030C94CF340C9440030C94400364
:100050000C9440030C9440030C9440030C948D3397
:100060000C9440030C9401340C94D7330C9440034B
:100070000C9440030C9440030C9440030C944003F4
:100080000C94A1340C9440030C9440030C94400352
:100090000C9440030C9440030C9440030C94FD34E6
:1000A0000C9440030C9440030C9473340C94400360
:1000B0000C9440030C9440030C9440030C9445347E
:1000C0000C9440030C9440030C9440030C944003A4
:1000D0000C9440030C9440030C9440030C94400394
:1000E0000C9440030C9483130C94EF0C0C94620B4F
:1000F0000C945E0B0C94600B0C9450060C945C0BEF
:100100000C94FF030C9463090C94DA0A0C94110B01
:100110000C9414060C949E360C949F2F0C945A3019
:100120000C948F190C94DA0C0C94690A0C94580BEB
:100130000C9409040C94600C0C9428040C94F31A8D
:100140000C94D90B0C94270F0C948F050C9462051A
:100150000C941E040C947B050C94FC060C945A0B16
:100160000C94AB120C9446050C94E41A0C942A05DA
:100170000C942E0C0C94F5160C94810A0C94140417
:100180000C94C31F0C94D30C0C94DC1B0C94FC2B10
:100190000C943F040C940B1D0C9424040C943F31DC
:1001A0000C9436040C94DD0A0C94B82B0C9414189F
:1001B0000C94F9100C94A3050C94162E0C948A2E12
:1001C0000C94212C0C943E050C94EC2C0C942F0BCD
:1001D0000C94AF060C94560B0C9489330C94601C51
:1001E0000C9458050C94B81C0C94FD0C0C94C41E73
:1001F0000C94760C0C94F60C0C941B050C9499053D
:100200000C942C040C9419290C94540B0C946C052C
:100210000C946E1E0C9473090C940D040C946109DB
:100220000C9467060C94791C0C9411040C940D0C1E
:100230000C94AD050C94D4270C9440040C94B80B8A
:100240000C94BB200C9434050C9497180C94200546
:100250000C9469210C94E5120C9475060C94BD3035
:100260000C9469130C9485050C9441060C940708B2
:100270000C94C5190C940D170C943A040C94A51CFD
:100280000C94BE210C944E050C942A180C9462090F
:100290000C9432040C94E80C0C94DA200C94F82F93
:1002A0000C9464090C94BA090C94B40C0C948C1C36
:1002B0000C941A040C9429290C943E180C94272CA5
:1002C0000C9475280C9405040C94021C0C948D0954
:1002D0000C9413050C94D22D0C94CB0C0C94E10CC3
:1002E0000C9444040C9486096E2F61004F4B004F10
:1002F0004B004F4B00646F6573206E6F742066690E
:100300007420696E204D656D6F7279004661696C6D
:100310007572652C20454550524F4D2073697A65A2
:1003200020657863656564656420004D4653746597
:100330007070657220646F6573206E6F74206669DB
:100340007420696E204D656D6F727900437573740A
:100350006F6D20446576696365206973206E6F74E4
:1003600020737570706F7274656420627920746890
:100370006973206669726D77617265207665727344
:10038000696F6E00527564646572204C434420644A
:100390006F6573206E6F742066697420696E204DDE
:1003A000656D6F7279005241442F54434153204C84
:1003B000434420646F6573206E6F742066697420F7
:1003C000696E204D656D6F727900424154544552FB
:1003D00059204C434420646F6573206E6F7420660F
:1003E000697420696E204D656D6F727900454649CC
:1003F00053204C434420646F6573206E6F742066F5
:10040000697420696E204D656D6F727900464355A1
:10041000204C434420646F6573206E6F74206669BE
:100420007420696E204D656D6F7279004661696C4C
:10043000757265206F6E2072656164696E672063F6
:100440006F6E666967004B6176204D656761007E5F
:10045000306D79335B5F707F7B771F0D3D4F4700B9
:10046000000000000000000000000000000000008C
:100470000000000000000000000000800180257ED8
:10048000306D79335B5F707F7B00000009000000F6
:10049000777F4E7E4F475F37307C000E00767E6759
:1004A0007E775B463E000000336D4E1378000800F7
:1004B0007D1F0D3D4F477B373038000600151D6707
:1004C00073055B0F1C000000276D4E007800004490
:1004D0006576696365427566666572204F766572FA
:1004E000666C6F7721004C6F6164696E6720636F83
:1004F0006E666967206661696C65640000002100B2
:10050000240027002A002D003000330001010000E4
:10051000040107010A0100002200250028002B0029
:100520002E003100340002010000050108010B011A
:10053000000020002300260029002C002F0032009C
:100540000001000003010601090105050505070575
:1005500008080808020202020A0A0808040404043F
:10056000010101010101010103030303030303036B
:10057000040707070C0C0C0C0C0C0C0C02020202FA
:1005800006060606060606060B0B0B0B0B0B0B0BE3
:100590000102102020080810204010204080020195
:1005A000020108040201010204081020408080407A
:1005B0002010080402018004020180402010080479
:1005C0000201080402010102040810204080010217
:1005D00004081020408000000A0B02090C0D0E08D0
:1005E00007030401000000000000000000000000FC
:1005F00000000000000000000000000000000000FB
:1006000000001211100000000000000000000000B7
:100610000000000000000000000000009E361124D1
:100620001FBECFEFD1E2DEBFCDBF00E00CBF13E0B5
:10063000A0E0B2E0E4E3F2E800E00BBF02C0079004
:100640000D92A03DB107D9F721E1A0EDB3E001C0C3
:100650001D92AA3AB207E1F713E0CFE0D3E000E041
:1006600006C021970109802FFE010E948B3FCE30EA
:10067000D10780E00807A9F70E9435370C9418418C
:100680000C940000AC0110928D1090915D1180913E
:100690005C11FA01BF01641B750B20918D10308134
:1006A00030938D10931304C0921302C010928D10DA
:1006B0003081311104C0921721F0CB010895381711
:1006C000D1F33196E7CF0F931F93CF93DF938091B0
:1006D0005111882309F446C0D0E0C0E0813029F4EC
:1006E00082E080935111C1E9D0E1809152118823B9
:1006F00041F1209721F4C0915611D09157118E01EC
:10070000CE010E944203892B29F42196F8018081B1
:100710008111F5CFF8018081882309F1C8010E9479
:100720004203F801E80FF91F8081882311F010823D
:100730003196F0935711E093561110935511009391
:1007400054118091541190915511892B59F081E0E9
:1007500080935211DF91CF911F910F91089510E076
:1007600000E0EBCF80E0F6CF0E946303882351F0D6
:1007700081E0809352118093531180915411909194
:10078000551108951092531190E080E00895CF9391
:10079000DF93DC01FD01EC012881222351F030912F
:1007A0005D11231301C00196FC0120812D93019658
:1007B000F1CFE817F90710F41192FBCFDF91CF9139
:1007C00008958150823108F05AC0E82FF0E0882760
:1007D000E351FC4F8F4F0C948B3F0D041104FF032A
:1007E000050409043F0414041A041E042404280404
:1007F0002C04320436043F043A044004440480913B
:1008000080008F77809380000895809180008F7D95
:10081000F9CF80918000877FF5CF84B58F7784BD35
:10082000089584B58F7DFBCF8091B0008F77809342
:10083000B00008958091B0008F7DF9CF8091900035
:100840008F77809390000895809190008F7DF9CFED
:1008500080919000877FF5CF8091A0008F77809363
:10086000A00008958091A0008F7DF9CF8091A00015
:10087000877FF5CF809120018F77809320010895A5
:10088000809120018F7DF9CF80912001877FF5CF66
:10089000CF93DF93282F30E0F901EA52FA4F849189
:1008A000F901E057FA4FD491F901E65BFA4FC49190
:1008B000CC23A1F081110E94E103EC2FF0E0EE0FB8
:1008C000FF1FE05DFA4FA591B491EC91ED2381E01B
:1008D00090E009F480E0DF91CF91089580E090E00E
:1008E000FACF1F93CF93DF93282F30E0F901EA521C
:1008F000FA4F8491F901E057FA4FD491F901E65B80
:10090000FA4FC491CC23A9F0162F81110E94E10364
:10091000EC2FF0E0EE0FFF1FEA5EFA4FA591B491C5
:100920008FB7F894EC91111108C0D095DE23DC93B9
:100930008FBFDF91CF911F910895DE2BF8CFCF931A
:10094000DF9390E0FC01E057FA4F2491865B9A4FC9
:10095000FC0184918823C9F090E0880F991FFC0165
:10096000E450FB4FA591B491FC01EA5EFA4FC591AA
:10097000D49161110DC09FB7F8948C91209582237A
:100980008C938881282328839FBFDF91CF9108957E
:10099000623051F49FB7F8943C91822F8095832365
:1009A0008C93E8812E2BEFCF8FB7F894EC912E2B00
:1009B0002C938FBFEACF1F93CF93DF93182FEB01B8
:1009C00061E00E949F04209739F460E0812FDF915D
:1009D000CF911F910C947104CF3FD10511F461E0C8
:1009E000F5CFE12FF0E0EA52FA4FE491E150E23125
:1009F00008F0B3C0F0E08827EF5FFA4F8F4F0C94F8
:100A00008B3F13051B0520052A053405AD053E0562
:100A100046054E05580562056C057B058505AD0547
:100A20008F059905A30584B5806884BDC7BDDF9196
:100A3000CF911F91089584B5806284BDC8BDF7CF62
:100A400080918000806880938000D0938900C0935B
:100A50008800EDCF80918000806280938000D093E9
:100A60008B00C0938A00E3CF8091800088608093E0
:100A70008000D0938D00C0938C00D9CF8091B000BE
:100A800080688093B000C093B300D1CF8091B00054
:100A900080628093B000C093B400C9CF8091900071
:100AA000806880939000D0939900C0939800BFCF46
:100AB00080919000806280939000D0939B00C093BF
:100AC0009A00B5CF80919000886080939000D09379
:100AD0009D00C0939C00ABCF8091A0008068809364
:100AE000A0008091A0008F7B8093A000D093A900EC
:100AF000C093A8009CCF8091A00080628093A0004A
:100B0000D093AB00C093AA0092CF8091A0008860E0
:100B10008093A000D093AD00C093AC0088CF8091AB
:100B20002001806880932001D0932901C09328017F
:100B30007ECF80912001806280932001D0932B0191
:100B4000C0932A0174CF8091200188608093200196
:100B5000D0932D01C0932C016ACFC038D1050CF081
:100B60003ECF33CF3FB7F89480917A0B90917B0BB7
:100B7000A0917C0BB0917D0B26B5A89B05C02F3FA3
:100B800019F00196A11DB11D3FBFBA2FA92F982FB3
:100B90008827BC01CD01620F711D811D911D42E0AE
:100BA000660F771F881F991F4A95D1F708952FB7B1
:100BB000F8946091760B7091770B8091780B9091FF
:100BC000790B2FBF0895DC01ED91FC910190F0812C
:100BD000E02D1994EF92FF920F931F93CF93DF9321
:100BE0007C0160915C118091591190915A110E9481
:100BF000E3050091591110915A11E701FE0164912A
:100C0000662359F0D801ED91FC910190F081E02D1F
:100C1000C80119952196892B89F7DF91CF911F91F2
:100C20000F91FF90EF900895AF92BF92CF92DF9215
:100C3000EF92FF920F931F93CF93DF936C017B0191
:100C40008B01040F151FEB015E01AE18BF08C01722
:100C5000D10759F06991D601ED91FC910190F08195
:100C6000E02DC6011995892B79F7C501DF91CF9148
:100C70001F910F91FF90EF90DF90CF90BF90AF90BA
:100C80000895FC01538D448D252F30E0842F90E092
:100C9000821B930B541710F0CF9608950197089577
:100CA000FC01918D828D981779F0A28DAE0FBF2F28
:100CB000B11D5D962C91828D8F5F60E60E94493F49
:100CC000928F822F90E008958FEF9FEF0895FC019F
:100CD000918D828D981731F0828DE80FF11D858DF1
:100CE00090E008958FEF9FEF0895FC01918D228D84
:100CF000892F90E0805A9F4F821B910960E670E037
:100D00000E94633F08958BEC9FE00E94750621E0EE
:100D1000892B09F420E0822F0895FC01A48DA80FEF
:100D2000B92FB11DA358BF4F2C91848D90E001962F
:100D30008F739927848FA689B7892C93A089B1894D
:100D40008C91837080648C93938D848D981306C0EE
:100D50000288F389E02D80818F7D80830895EF9252
:100D6000FF920F931F93CF93DF93EC0181E0888F65
:100D70009B8D8C8D98131AC0E889F989808185FF35
:100D800015C09FB7F894EE89FF896083E889F989D7
:100D900080818370806480839FBF81E090E0DF91D9
:100DA000CF911F910F91FF90EF900895F62E0B8D2C
:100DB00010E00F5F1F4F0F731127E02E8C8D8E11E7
:100DC0000CC00FB607FCFACFE889F989808185FF4E
:100DD000F5CFCE010E948D06F1CFEB8DEC0FFD2FEC
:100DE000F11DE358FF4FF0829FB7F8940B8FEA890B
:100DF000FB8980818062CFCFCF93DF93EC01888D18
:100E00008823B9F0AA89BB89E889F9898C9185FD85
:100E100003C0808186FD0DC00FB607FCF7CF8C9113
:100E200085FFF2CF808185FFEDCFCE010E948D0638
:100E3000E9CFDF91CF91089580E090E0892B29F0F0
:100E40000E94830681110E94000080E090E0892BBF
:100E500049F080E090E0892B29F00E940000811188
:100E60000E94000080E090E0892B49F080E090E053
:100E7000892B29F00E94000081110E94000080E06F
:100E800090E0892B49F080E090E0892B29F00E94C6
:100E9000000081110C9400000895AF92BF92CF9290
:100EA000DF92EF92FF920F931F93CF93DF936B012B
:100EB0007A01EC01CD5BD44F28813CE0389F800162
:100EC000399F100D1124A090420BB12C27FF1FC099
:100ED000FB011182108288818F5F8883888198014D
:100EE000280F311D87FD3A95F6012A153B051CF4A4
:100EF00088818C30C4F180819181049680349C4932
:100F000008F473C0F60180819181049670C08881D5
:100F10009801280F311D87FD3A952A153B05DCF60F
:100F20008881A801480F511D87FD5A95FA01EE0FDF
:100F3000FF1FE40FF51FEE54F54F808186FFCBCFE6
:100F40008881F801E80FF11D87FDFA95CF01EE0FBA
:100F5000FF1FE80FF91FEE54F54F808160E08F739B
:100F60000E947104B8CF808191812881A801420F2D
:100F7000511D27FD5A959A01FA01EE0FFF1FE20F4E
:100F8000F31FEE54F54F21813281820F931FF70139
:100F90009183808388819801280F311D87FD3A95C0
:100FA000F901EE0FFF1FE20FF31FEE54F54F8081A2
:100FB00086FF22C08881080F111D87FD1A95F80150
:100FC000EE0FFF1FE00FF11FEE54F54F808161E03F
:100FD0008F73DF91CF911F910F91FF90EF90DF9072
:100FE000CF90BF90AF900C94710480E49CE9F7011E
:100FF000918380838FEF8883DF91CF911F910F9131
:10100000FF90EF90DF90CF90BF90AF90089508953C
:1010100020918D0A260F3327331F21323105ECF43E
:101020002091A40BFC0190E080E0243069F082E084
:101030000895A0918D0A2191AC014559554FA40FF7
:10104000B52FB11D2C930196861798F380918D0AC8
:10105000680F60938D0A80E0089581E008951092F2
:10106000A40B81E08093A30B10927E0B61E084E1DE
:101070000E94710461E085E10E947104E9EBF0E0F7
:1010800080818E7F808380818D7F808388E48093C0
:10109000B80085E48093BC000895CF93DF9391E07E
:1010A00090936A0A8823B9F0C091B800D091BA0031
:1010B0008091BC008A7B8093BC0060E084E10E9448
:1010C000710460E085E10E9471040E942F08D093B2
:1010D000BA00C093B800DF91CF9108958F929F928C
:1010E000AF92BF92CF92DF92EF92FF920F931F9336
:1010F000CF93DF93D091CD0BD13208F0D7C0182F0A
:10110000C091CC0B0E94B2056B017C018091A40BB5
:1011100081116BC082E08093A40B1093A30B8FEF1F
:101120008093A20B1092A10BD093A00BACEABBE072
:10113000E0E8FBE080E0D81391C010927F0B809133
:101140007F0BCC0FC82BC0937F0B80917E0B81301F
:1011500009F088C010927E0B0E94B2056B017C01E1
:1011600080917F0B8093BB008091A60B9091A70B81
:10117000A091A80BB091A90B892B8A2B8B2BA1F0E6
:101180000E94B2050091A60B1091A70B2091A80B0D
:101190003091A90B6C197D098E099F090617170755
:1011A0002807390708F442C08091BC0083FDD8CFDE
:1011B00085EC8093BC000E94B2056B017C0180919C
:1011C000A40B823009F450C08091A20B8F3F09F428
:1011D0006FC08091A20B803209F46CC08091A20B89
:1011E000803309F469C084E026C08091A60B9091F9
:1011F000A70BA091A80BB091A90B892B8A2B8B2B45
:1012000009F484CF0E94B2058090A60B9090A70BA2
:10121000A090A80BB090A90B6C197D098E099F09AD
:1012200086169706A806B90608F070CF8091A50B20
:101230000E944D0885E01092AB0B1092CD0B1092DE
:10124000AA0BDF91CF911F910F91FF90EF90DF904C
:10125000CF90BF90AF909F908F9008959D91919364
:101260008F5F69CF85EEA5CF8091A60B9091A70BDC
:10127000A091A80BB091A90B892B8A2B8B2B09F479
:101280009ECF0E94B2050091A60B1091A70B209152
:10129000A80B3091A90B6C197D098E099F090617BF
:1012A00017072807390708F08ACFC0CF81E0C3CFDE
:1012B00080E0C1CF82E0BFCF83E0BDCF81E00C945E
:1012C0006E08089508950895E091690A8091680A6A
:1012D000E81730F4F0E0E85BF54F808190E0089586
:1012E0008FEF9FEF08959091690A8091680A2FEF20
:1012F0003FEF981748F4E92FF0E0E85BF54F2081C5
:1013000030E09F5F9093690AC90108958091680A4F
:101310009091690A891B990B0895CF92DF92EF9201
:10132000FF920F931F93CF93DF937C01CB018A0130
:101330002091AA0B222389F0EB016B01C40ED51E6C
:10134000CC15DD0569F06991D701ED91FC91019013
:10135000F081E02DC7011995F3CF642F0E94080892
:10136000C801DF91CF911F910F91FF90EF90DF9017
:10137000CF900895CF93DF931F92CDB7DEB76983E7
:101380002091AA0B2223F9F02091CD0B203258F0A6
:1013900021E030E0FC013383228390E080E00F9075
:1013A000DF91CF9108958091AB0BE82FF0E0E455E9
:1013B000F44F998190838F5F8093AB0B8093CD0B1B
:1013C00081E090E0ECCF61E0CE0101960E94080838
:1013D000F7CFCF93C82F682F646086EB9FE00E9401
:1013E000BA096C2F70E06B7F86EB9FE0CF910C9475
:1013F000BA090F931F93CF93DF938C01C62FD42F7D
:10140000FC01848191E09093AA0B8093CC0B109205
:10141000AB0B1092CD0B862F807F842B9585892B6B
:101420000E94E909F0E1CF9FC0011124F8019585E0
:10143000892B8D2B0E94E909DF91CF911F910F918C
:101440000C945E09CF93DF9300D000D01F921F92BF
:10145000CDB7DEB728E0EFE3F2E0DE0111960190B0
:101460000D922A95E1F7FC012385241710F44FEF24
:10147000420F50E0440F551F21E030E02C0F3D1F7C
:10148000420F531FFA012081620F606840E02896E6
:101490000FB6F894DEBF0FBECDBFDF91CF910C9495
:1014A000F909CF93DF93EC0140E061E00E94F90974
:1014B0008BE39FE10197F1F78985882339F040E0BC
:1014C00060E0CE01DF91CF910C94220ADF91CF91A1
:1014D000089541E00E94F90981E090E00895FC013F
:1014E000248131E03093AA0B2093CC0B1092AB0BEC
:1014F0001092CD0B607F8585862B0E94E9090C94A4
:101500005E09AF92BF92CF92DF92EF92FF920F935C
:101510001F93CF93DF936C01FC01848191E0909342
:10152000AA0B8093CC0B1092AB0B1092CD0BEB015E
:10153000042F10E05B01A00EB11EF12CEE24E39409
:10154000CA15DB0541F18991F60195859160807F8F
:10155000892B0E94E909FE0131972081F0E12F02D9
:1015600090011124F60185858160822B0E94E90992
:10157000F394F7E0FF1520F780E00E946E08F60173
:101580008481E092AA0B8093CC0B1092AB0B10924B
:10159000CD0BF12CD5CF0E945E09C8010197DF91D8
:1015A000CF911F910F91FF90EF90DF90CF90BF9060
:1015B000AF90089590E080E00895CF93DF93FC0111
:1015C0002381222359F1EC0161E084810E949F0470
:1015D00061E08D810E949F048B81843011F08830FE
:1015E000B1F461E08E810E949F0461E08F810E94CE
:1015F0009F048FA58F3F91F061E00E949F046EA52C
:1016000081E068278FA5DF91CF910C94710483301E
:1016100011F0863071F761E08E81E9CFDF91CF91D3
:101620000895CF93DF93FC0123812223A9F0EC01DD
:101630000190F081E02D0480F581E02D60E01995A6
:101640008FA58F3F49F061E00E949F046EA58FA592
:10165000DF91CF910C947104DF91CF910895DC015B
:10166000ED91FC91119724813581477055276627AC
:1016700077274150510961097109473051056105CA
:10168000710570F4FA018827E75BF44F8F4F0C94D3
:101690008B3F540B560B580B5A0B5C0B5E0B600BBD
:1016A00061E0CD01F901199465E0FBCF64E0F9CF69
:1016B00066E0F7CF62E0F5CF6AE0F3CF68E0F1CF04
:1016C00069E0EFCFCF93DF93EC01CB01BA0126E0C5
:1016D00030E040E050E00E94083F62307105810533
:1016E000910589F16CF46115710581059105D1F0C1
:1016F0006130710581059105F9F0DF91CF91089571
:10170000643071058105910561F124F16530710541
:101710008105910591F7E881F9810480F581E02D3B
:1017200066E006C0E881F9810480F581E02D64E07F
:10173000CE01DF91CF911994E881F9810480F58180
:10174000E02D65E0F5CFE881F9810480F581E02D99
:1017500061E0EECFE881F9810480F581E02D63E05E
:10176000E7CFE881F9810480F581E02D62E0E0CFE8
:10177000DC01ED91FC910480F581E02D437055274B
:1017800066277727423051056105710571F04330B6
:1017900051056105710559F041305105610571052B
:1017A00011F065E0199466E0FDCF6AE0FBCF69E0D7
:1017B000F9CFCF93DF93EC01CB01BA0123E030E006
:1017C00040E050E00E94083F6130710581059105BD
:1017D00099F06230710581059105A9F0672B682B9E
:1017E000692BC1F4E881F9810480F581E02D64E082
:1017F000CE01DF91CF911994E881F9810480F581C0
:10180000E02D61E0F5CFE881F9810480F581E02DDC
:1018100062E0EECFDF91CF910895DC01ED91FC9174
:101820000480F581E02D43705527662777274230E5
:1018300051056105710571F0433051056105710570
:1018400059F0413051056105710511F062E01994BC
:1018500063E0FDCF61E0FBCF60E0F9CFCF93DF9392
:10186000EC01E881F9810480F581E02D8A8160E056
:10187000811162E0CE011995E881F9810480F5813A
:10188000E02D8A8161E0811163E0CE0119958CA57C
:101890009DA58230910538F0880F991F880F991FF8
:1018A00005970197F1F7E881F9810480F581E02D32
:1018B0008A8160E0811162E0CE01DF91CF911994BD
:1018C000CF93DF93EC0120E030E0A9016C897D89A2
:1018D0008E899F890E94A84018162CF4E8A9F9A9BE
:1018E000DF91CF911994EAA9FBA9FACFCF92DF92A9
:1018F000EF92FF920F931F93CF93DF93DC01139628
:10190000CC91C43039F0C83059F1C33019F0C63029
:1019100049F1C2E08C010C5F1F4FF12CE12CC62E67
:10192000D12CD1E0F8016481C6010E2C02C095953E
:1019300087950A94E2F780FD6D270F5F1F4F808126
:101940000E947104BFEFEB1AFB0AEC1658F3DF910B
:10195000CF911F910F91FF90EF90DF90CF9008955E
:10196000C4E0D8CFC3E0D6CFDC011396EC91139737
:10197000E93008F042C0F0E08827EE53F34F8F4F74
:101980000C948B3FCB0CD30CDA0CE10CE80CFD0C67
:10199000EF0CFD0CF60CED91FC9111970084F18594
:1019A000E02DCD011994ED91FC9111970284F385FE
:1019B000E02DF7CFED91FC9111970484F585E02D92
:1019C000F0CFED91FC9111970684F785E02DE9CFDA
:1019D000ED91FC9111970088F189E02DE2CFED9116
:1019E000FC9111970288F389E02DDBCFED91FC91FA
:1019F00011970488F589E02DD4CF08954F925F9216
:101A00006F927F928F929F92AF92BF92CF92DF920E
:101A1000EF92FF920F931F93CF93DF93EC01C8884F
:101A2000D988EA88FB888C859D85AE85BF85C81AD4
:101A3000D90AEA0AFB0A6C897D898E899F899B01F4
:101A4000AC010E94FF3D4B015C016C8D7D8D8E8D44
:101A50009F8D9B01AC010E94943F9B01AC01C5018D
:101A6000B4010E9400400E947240C114D104E104FC
:101A7000F10409F0B1C062307105810591050CF0E7
:101A8000CBC01CA21DA21EA21FA21C8A1D8A1E8AD8
:101A90001F8A1CAA1DAA1EAA1FAADF91CF911F91FF
:101AA0000F91FF90EF90DF90CF90BF90AF909F90FD
:101AB0008F907F906F905F904F9008951016110651
:101AC00012061306B4F46C157D058E059F051CF4F3
:101AD0002A812111A1C09B01AC0188279927DC0133
:101AE000821B930BA40BB50B8CAB9DABAEABBFAB0A
:101AF00093C0011511052105310509F48DC06C1540
:101B00007D058E059F050CF087C08A81882309F426
:101B100083C030952095109501951F4F2F4F3F4F53
:101B20000CAB1DAB2EAB3FAB77C0011511052105EA
:101B3000310509F471C08824992454018C189D083A
:101B4000AE08BF08681579058A059B050CF064C0CE
:101B50008A81811161C0DDCFCCACDDACEEACFFACD5
:101B6000A7019601C701B6010E94943F2B013C01D9
:101B7000C501B4010E94A03D20E030E040E850E4FF
:101B80000E94FF3D20E030E040E85FE30E94943F88
:101B90009B01AC01C301B2010E9400409B01AC015A
:101BA000C701B6010E94933F3B016C01FE01E05C5E
:101BB000FF4FE080F180028113819701A8010E940C
:101BC000A840181614F473018601C701D8018CAF20
:101BD0009DAFAEAFBFAF3AC00CA91DA92EA93FA9BA
:101BE0001C141D041E041F040CF468CF10161106EB
:101BF000120613060CF099CF0027112798010C1933
:101C00001D092E093F0960177107820793070CF021
:101C100062CF2A8121115FCF8CA89DA8AEA8BFA852
:101C200081149104A104B10409F096CF88AD99AD57
:101C3000AAADBBAD8CAF9DAFAEAFBFAF81E01C1402
:101C40001D041E041F040CF080E08A833FEF831AFA
:101C5000930AA30AB30A8CAA9DAAAEAABFAACCACC7
:101C6000DDACEEACFFACC701B6010E9479406CA3BD
:101C70007DA38EA39FA3A701960160E074E284E791
:101C800099E40E9400406C8B7D8B8E8B9F8B2A8108
:101C9000211103CF90586C8B7D8B8E8B9F8BFDCE4B
:101CA000CF92DF92EF92FF920F931F93CF93DF9328
:101CB000EC016A017B0120E030E0A901CB01B60113
:101CC0000E94993D87FF04C0F7FAF094F7F8F0946A
:101CD000A7019601688D798D8A8D9B8D0E94993D13
:101CE000882309F446C0C88ED98EEA8EFB8E8E01F9
:101CF000005C1F4FA701960160E074E284E799E45D
:101D00000E940040F80160837183828393838CA9D1
:101D10009DA9AEA9BFA9181619061A061B064CF5EF
:101D20006C897D898E899F899B01AC010E94FF3D52
:101D30006B017C016C8D7D8D8E8D9F8D9B01AC0127
:101D40000E94943F9B01AC01C701B6010E94004074
:101D50000E9472406CAB7DAB8EAB9FABCE01DF912E
:101D6000CF911F910F91FF90EF90DF90CF900C9447
:101D7000FE0CDF91CF911F910F91FF90EF90DF90BC
:101D8000CF9008958F929F92AF92BF92EF92FF9261
:101D90000F931F93CF937C018B01C42F0E94D70513
:101DA000F80180809180A280B380DC01CB0188198A
:101DB0009909AA09BB094C2F50E070E060E0841734
:101DC0009507A607B70748F0F70119950E94D705B0
:101DD000F8016083718382839383CF911F910F9168
:101DE000FF90EF90BF90AF909F908F9008952091BB
:101DF000460A3091470A280F391F81E021343640C6
:101E000008F080E00895FC0180818823F9F0848146
:101E10008823E1F08181811119C081E08183828171
:101E20009381FC0140895189628973894036594701
:101E30006E4F7F4F59F040E659E76EEF7FEFFC01A0
:101E4000408B518B628B738B0C94FE0C08954F92D8
:101E50005F926F927F928F929F92AF92BF92CF923A
:101E6000DF92EF92FF920F931F93CF93DF93D12CCA
:101E7000A7E1CA2E08E810E0B8E5EB2EB2E0FB2E91
:101E8000C4EB4C2E512C612C712C80910504D8167A
:101E900008F096C0C0910304D0910404DC9CC00DEE
:101EA000D11D112489899A89AB89BC894D855E85AC
:101EB0006F85788984179507A607B70709F47AC054
:101EC000481759076A077B070CF076C00197A109EC
:101ED000B109898B9A8BAB8BBC8BA989BA89A0324B
:101EE00082E0B807ACF52B854801821A910827FDDE
:101EF0009394880C991C880C991C092C000CAA0836
:101F0000BB082C85C701821B910927FD93959C0175
:101F1000220F331F220F331F032E000C440B550BCF
:101F2000281939094A095B09A53BB10514F0A4EB4E
:101F3000B0E0B7FF02C0B0E0A0E00E94323FA301D2
:101F400092010E94083F820E931EA41EB51ED4016A
:101F5000EA85E03378F52B85C801821B910927FDBE
:101F600093959C01220F331F220F331FA217B30733
:101F70007CF02C85C701821B910927FD93959C015C
:101F8000220F331F220F331FA217B3070CF49D013A
:101F900022503109220F331F4FB7F8948E2F90E053
:101FA000FC01EE0FFF1FE80FF91FEE54F54F3283CF
:101FB00021834FBFD39469CF0196A11DB11D89CF55
:101FC000DF91CF911F910F91FF90EF90DF90CF9015
:101FD000BF90AF909F908F907F906F905F904F9049
:101FE00008958BE891E00197F1F70895EF92FF9241
:101FF0000F931F93CF93DF93EC01162FE42EFF2452
:10200000F394442311F080E8F82E08E061E08A811F
:102010000E949F040E94F10F61E08F2D812309F03F
:1020200060E089810E949F040E94F10F60E08A8134
:102030000E949F040E94F10FEE2081F1110F0150C8
:1020400029F761E08A810E949F0460E089810E94F3
:102050009F040E94F10F60E08A810E949F040E9409
:10206000F10F89810E944804182F811104C061E09A
:1020700089810E949F040E94F10F61E08A810E9481
:102080009F040E94F10F81E0111101C080E0DF91F7
:10209000CF911F910F91FF90EF9008951695CFCF9C
:1020A000CF93DF93EC0161E089810E949F040E943D
:1020B000F10F60E08A810E949F040E94F10F60E0AE
:1020C00089810E949F04DF91CF910C94F10F61E010
:1020D000FC0181810E949F040C94F10FAF92BF928A
:1020E000CF92DF92EF92FF920F931F93CF93DF93E4
:1020F000EC01162F042FAC880E94671040E060E4CA
:10210000CE010E94F60FCE010E94501010958C89CE
:10211000180FC02ED12CE12EF12C84E0B12EA81680
:1021200031F0F601EE0DFF1DED53FD4FB080CE01F5
:102130000E94671060EC6B0D40E0CE010E94F60F2C
:102140008C89CE0CDF1C8C151D0414F4082F011B88
:1021500010E0DD24DA94D00EEC0EFD1E011781F0A4
:1021600084E0ED2DE11BA81201C0E12FEE0DFF2D43
:10217000F11D41E06481CE010E94F60F1F5FEECF9A
:10218000CE01DF91CF911F910F91FF90EF90DF90E3
:10219000CF90BF90AF900C945010EF92FF921F938E
:1021A000CF93DF93EC01162F8C8180FF10C060313C
:1021B00070F46D837E0184E0E80EF11C612F617084
:1021C00089910E9471041695EC16FD06B9F7DF910E
:1021D000CF911F91FF90EF900895DC01842FE09143
:1021E000FA03F091FB03309719F04D915C9119942B
:1021F00008954F925F926F927F928F929F92AF92CB
:10220000BF92CF92DF92EF92FF920F931F93CF93E3
:10221000DF93F12C6FE1E62E8091F603F81608F0BB
:10222000EAC0C091F403D091F503FE9CC00DD11D0E
:1022300011248A81882309F4B2C088810E9448044D
:102240008C0189810E9448046C010E94D7054B01D2
:102250005C0181E090E0CD2811F090E080E0880FF3
:10226000991F21E0012B09F020E0922F982B4B8D34
:102270005C8D6D8D7E8D95018401041B150B260BE5
:10228000370BB901A801453651056105710508F400
:1022900088C08885823008F484C08B8E9C8EAD8E79
:1022A000BE8E81508887EE859E1709F445C08885CB
:1022B00003E310E0873010F401E010E06D8524E0C6
:1022C000E202F0011124492F092E000C550BE42BDA
:1022D000F52BEC54FD4F708170039001719F300D10
:1022E0001124062E02C0220F331F0A94E2F7EF8555
:1022F000F8892E0F3F1F388B2F874C0F5D1FFA0177
:1023000041854423C1F04B885C886D887E884F8A64
:10231000588E698E7A8E8B8A9C8AAD8ABE8A02C05C
:10232000359527956A95E2F73A8B298B8C3008F022
:102330008BE08F5F88879E8709891A898D819E81AE
:102340000817190761F19801281B390BC901E091A1
:10235000F203F091F3036901CC0CDD1C309709F412
:1023600047C06B817C812F5C3F4F23363105D0F510
:1023700097FD2FC080E01995C00ED11E31E4C31621
:102380003FE1D30654F08F85988983709927988B05
:102390008F871A8A198A10E000E01E830D83F39458
:1023A0003BCF4F89588D698D7A8D95018401041B2F
:1023B000150B260B370BB901A801453F51406105AC
:1023C000710508F470CF8B8E9C8EAD8EBE8E1886F4
:1023D0006ACF82E01995C8018C199D09803C904E06
:1023E00094F2DBCF97FD02C081E0C5CF83E0F2CF4E
:1023F00037FDF1CFC1CFDF91CF911F910F91FF90AA
:10240000EF90DF90CF90BF90AF909F908F907F9094
:102410006F905F904F900895CF92DF92EF92FF926E
:102420000F931F93CF93DF936C017A018091F00398
:102430009091F103892B31F1D60113968C9100E133
:1024400081FD08E0EB01CE25DF2510E0C0FF13C0C1
:102450008091F0039091F103892B69F0E091EE03F4
:10246000F091EF03309739F0D6014D915C91612FD7
:102470008E2D81701995D695C795F694E7941F5FB8
:102480000113E4CFDF91CF911F910F91FF90EF9057
:10249000DF90CF900895AF92BF92CF92DF92EF92EC
:1024A000FF920F931F93CF93DF931F92CDB7DEB7A9
:1024B000C090F003D090F103C114D10409F43FC0DF
:1024C000FC01238130E1B32E21FF02C028E0B22EAF
:1024D000A62E8C01F60185818683F12CE12CBA941D
:1024E0006B2DC6010E94CD10F80182810E94480424
:1024F0008983F80182810E9448048983EE0CFF1CC5
:10250000298181E090E0211102C090E080E0E82A7A
:10251000F92AB110E4CFF6016681C6010E94CD1000
:10252000F801648175816E157F0549F0AA2021F0BC
:10253000A701C8010E940C12F801F582E4820F90F5
:10254000DF91CF911F910F91FF90EF90DF90CF908F
:10255000BF90AF900895CF93DF93C0E0D6E0809115
:10256000ED03C81768F48091EB039091EC0361E0F0
:10257000CD9F800D911D11240E944B12CF5FEFCF94
:10258000DF91CF910895E091E603F091E703309752
:1025900051F0DC0113962C911397222321F06D91B9
:1025A0007C9181E019940895E091E603F091E703AE
:1025B000309751F0DC0113962C911397211104C030
:1025C0006D917C9180E0199408950F931F93CF93A0
:1025D000DF9310E005E08091E503181730F5C09116
:1025E000E303D091E403109FC00DD11D11248C8111
:1025F000882399F08A810E9448049B81891769F099
:1026000091E0811101C090E09B839C81811107C002
:10261000992319F0CE010E94D4121F5FDCCF9923B9
:10262000E1F3CE010E94C312F8CFDF91CF911F9149
:102630000F910895FC01A08DB0E01396AA0FBB1F67
:10264000A80FB91F868997892D913C91821B930B06
:10265000978B868B8281863308F0865320917B008E
:10266000982F9870277F922B90937B0087708064BF
:1026700080937C0080917A00806480937A008091BE
:102680007A0086FDFCCF9091780080917900A08D32
:10269000B0E01396AA0FBB1FAE0FBF1F8927982764
:1026A00089278D939C93A08DB0E01396AA0FBB1F32
:1026B000AE0FBF1F868997892D913C91820F931F82
:1026C000978B868B808D8F5F808F808D8770808FBA
:1026D0000895CF93DF93C0E0DEE18091E203C81755
:1026E00078F48091E0039091E103CD9F800D911DDE
:1026F0001124FC01258D21110E941A13CF5FEDCF0B
:10270000DF91CF910895CF93DF93C0E0DEE1809118
:10271000E203C817C8F5A091E003B091E103CD9F93
:10272000A00DB11D11245D968C915D97882351F108
:1027300056968D919C91579723E0969587952A956B
:10274000E1F713962D913C911497AC01421B530B6A
:102750009A0157FF03C031952195310915964C9187
:1027600015974217130609F06CF414969C938E93F8
:102770001397E091DE03F091DF03309719F06D912C
:102780007C911995CF5FC3CFDF91CF910895DF92F0
:10279000EF92FF920F931F93CF93DF937C01D62F7D
:1027A000D42EC0E00BE410E060E0F70182810E94CB
:1027B0007104C8010197F1F76D2F661F6627661F28
:1027C000F70181810E947104C8010197F1F761E06E
:1027D000F70182810E947104C8010197F1F7CF5F70
:1027E000DD0FDC12E1CFDF91CF911F910F91FF90B0
:1027F000EF90DF9008951F93CF93DF93EC01162F96
:1028000060E088810E94710444E060E8CE010E948B
:10281000C71348E0612FCE010E94C71361E0888191
:10282000DF91CF911F910C947104AF92BF92CF9220
:10283000DF92EF92FF920F931F93CF93DF93EC0100
:10284000162F69017A0160E088810E94710443E0DB
:1028500060EACE010E94C713612F660F660F46E043
:10286000CE010E94C71310E09BE4A92EB12C60E0BA
:102870008A810E947104C5010197F1F76C2D617086
:1028800089810E947104C5010197F1F761E08A8195
:102890000E947104C5010197F1F71F5FF694E79458
:1028A000D794C7940113E3CF61E08881DF91CF9182
:1028B0001F910F91FF90EF90DF90CF90BF90AF905E
:1028C0000C9471040F93FC01E60FF11D23A130E07D
:1028D00050E040E0660F08E00E9415140F91089543
:1028E000DC01A60FB11D4E3008F04DE0E42FF0E002
:1028F000E358FD4F208193962C930C9462144D3035
:1029000008F04BE0DC01A60FB11DE42FF0E0E05928
:10291000FD4F208193962C930C946214FC0195A199
:102920009F7E80E1689FB0011124692B65A362E05E
:10293000CF010C946214AF92BF92CF92DF92EF92CC
:10294000FF920F931F93CF93DF93EC018B017B01D9
:10295000683E734020F097EEE92E23E0F22E8AE0E5
:10296000A82EB12CC701B5010E94633F6B01482F0F
:1029700063E0CE010E9470140A30110578F0C601A0
:10298000B5010E94633F482F62E0CE010E9470149F
:102990008AE0C816D10440F44DE00CC040E062E08B
:1029A000CE010E947014F8CFC70164E670E00E9467
:1029B000633F462F61E0CE010E94701461E0CE01BA
:1029C000DF91CF911F910F91FF90EF90DF90CF900B
:1029D000BF90AF900C948E149C01DC01A60FB11D2A
:1029E00093969C91939790714E3008F04DE0E42FB0
:1029F000F0E0EB5AFD4F8081982B93969C93C90190
:102A00000C946214FC0194A19F7E80E1689FB00148
:102A10001124692B64A361E0CF010C946214DC01E2
:102A2000A60FB11D4E3008F04DE0E42FF0E0E95B59
:102A3000FD4F208193962C930C946214AF92BF9219
:102A4000CF92DF92EF92FF920F931F93CF93DF937A
:102A5000EC018B017B01683E734020F097EEE92E7C
:102A600023E0F22E8AE0A82EB12CC701B5010E9406
:102A7000633F6B01482F62E0CE010E940F150A30C0
:102A8000110578F0C601B5010E94633F482F61E04F
:102A9000CE010E940F158AE0C816D10440F44DE023
:102AA0000CC040E061E0CE010E940F15F8CFC701D5
:102AB00064E670E00E94633F462F60E0CE010E9412
:102AC0000F1561E0CE01DF91CF911F910F91FF9023
:102AD000EF90DF90CF90BF90AF900C940215CF9302
:102AE000DF93EC0180E1689F900111248BA18F7E20
:102AF000822B8BA36DA16F7E622B6DA360E0CE0154
:102B00000E94621462E0CE01DF91CF910C946214B6
:102B10000F93FC01E60FF11D23A130E050E040E0EF
:102B2000660F08E00E9415140F9108959C014D3026
:102B300008F04BE0D901A60FB11D93969C91939795
:102B40009170E42FF0E0ED59FD4F8081982B939622
:102B50009C93C9010C948815CF92DF92EF92FF925B
:102B60000F931F93CF93DF938C01EB01683E73406B
:102B700010F0C7EED3E08AE0E82EF12CCE01B701C9
:102B80000E94633F6B01482F62E0C8010E949615C6
:102B9000C601B7010E94633F482F61E0C8010E944F
:102BA0009615CE0164E670E00E94633F462F60E018
:102BB000C801DF91CF911F910F91FF90EF90DF90AF
:102BC000CF900C9496152091C90F3091CA0F82179F
:102BD000930710F40C94C03E80E008950F931F9368
:102BE000CF93DF938C01EB01F801808191819C01EF
:102BF0002F5F3F4F318320830E94E3152881398165
:102C0000A9014F5F5F4F598348832253344FF90125
:102C1000808328813981283EF3E03F0760F48A33BE
:102C200019F72353344FF901108281E0DF91CF91DE
:102C30001F910F91089580E0F9CFCF92DF92EF922C
:102C4000FF920F931F93CF93DF938C01C090C90F16
:102C5000D090CA0FC62FD0E0F801808191817C010D
:102C6000FFEFEF1AFF0AF801F182E0820E94E315FC
:102C7000CE14DF0480F0082E000C990B8C179D07F2
:102C800059F781E0DF91CF911F910F91FF90EF9065
:102C9000DF90CF90089580E0F5CFBF92CF92DF9282
:102CA000EF92FF920F931F93CF93DF93EC0160E0BD
:102CB00088810E947104FB800F2D10E00C5F1F4F74
:102CC0000C0F1D1FFF20E1F0F801D2908F01C98089
:102CD000BA8088E0E82E6D2D661F6627661F8B2D53
:102CE0000E947104DD0C61E08C2D0E94710460E093
:102CF0008C2D0E947104EA94E110EDCFFA94E2CF9A
:102D000061E08881DF91CF911F910F91FF90EF904B
:102D1000DF90CF90BF900C9471049F92AF92BF92BE
:102D2000CF92DF92EF92FF920F931F93CF93DF9397
:102D3000EC01C62E61E08B810E94710461E08A8102
:102D40000E94710410E08D81181708F03FC0DB80ED
:102D5000BC8087E0E82EF12C00E061E08D2D0E9420
:102D600071048B2D0E9448040E2C01C0880F0A9418
:102D7000EAF7082B60E08D2D0E94710481E0E81ACB
:102D8000F10858F75E01A10EB11CF501D780D016ED
:102D9000D9F0CC20B9F0912E990C990C990CE02E19
:102DA000F12C8D2D8E2580FF07C04E2D4170692D91
:102DB0006F0DCE010E94ED10D694E694F394F8E0E6
:102DC000FF12EFCFF50107831F5FBDCF60E08A815F
:102DD000DF91CF911F910F91FF90EF90DF90CF90F7
:102DE000BF90AF909F900C947104CF93DF93C0E09D
:102DF000DBE08091F903C81768F48091F7039091A4
:102E0000F80361E0CD9F800D911D11240E948D1665
:102E1000CF5FEFCFDF91CF9108956F927F928F9226
:102E20009F92AF92BF92CF92DF92EF92FF920F9359
:102E30001F93CF93DF93C0E0D5E08091E503C817DF
:102E400078F48091E3039091E403CD9F800D911D70
:102E50001124FC01248121110E94C312CF5FEDCF08
:102E6000C0E0D5E08091E503C81778F48091E303D2
:102E70009091E403CD9F800D911D1124FC012481CC
:102E800021110E94D412CF5FEDCF10E05BE0752ED0
:102E90008091F903181708F057C0C091F703D0913B
:102EA000F803179DC00DD11D112460E0CE010E94D2
:102EB0008D166E01F7E0CF0ED11C5601612C912CBE
:102EC000812C8D8188151904D9F0D4F0F5018191F8
:102ED0005F0100E0E82EF12C80FF06C041E0662D86
:102EE000600FCE010E94ED10F594E7948E2D0F5FD8
:102EF000083081F7FFEF8F1A9F0A88E0680EE1CF54
:102F0000912CF12CE12C8D818E151F04D9F0D4F079
:102F1000F60181916F0100E0A82EB12C80FD06C062
:102F200040E0692D600FCE010E94ED10B594A7948A
:102F30008A2D0F5F083081F7FFEFEF1AFF0A88E054
:102F4000980EE1CF1F5FA4CF10E006E08091ED0363
:102F50001817E0F4C091EB03D091EC03109FC00D63
:102F6000D11D112460E0CE010E944B124C815D8185
:102F700070E060E0CE010E940C124C815D816FEF29
:102F80007FEFCE010E940C121F5FE0CFC0E0DEE1B8
:102F90008091E203C81728F5A091E003B091E10306
:102FA000CD9FA00DB11D11245D968C915D97882356
:102FB000B1F056968D919C91579723E09695879501
:102FC0002A95E1F714969C938E931397E091DE0374
:102FD000F091DF03309719F06D917C911995CF5FD7
:102FE000D7CFDF91CF911F910F91FF90EF90DF909E
:102FF000CF90BF90AF909F908F907F906F900895EB
:103000000E946303882359F081E0809352118093DA
:10301000531180915411909155110C94033D1092CD
:10302000531190E080E00895CF930E940018C82FBC
:103030000E94001861E08F3F910519F0009729F474
:1030400060E08C2FCF910C947104BC018C2FCF9138
:103050000C94DB040E9400189091540B891768F4BB
:103060002091520B3091530BA9016EE0869F400DC9
:10307000511D1124CA010C94030F08950F931F933F
:103080000E9400189091540B891708F04DC0E091F0
:10309000520BF091530B9EE0899FE00DF11D11241E
:1030A0008081882309F440C0A281B3811C961D92BF
:1030B0001D921D921C921F9750961D921D921D925B
:1030C0001C925397D4961D921D921D921C92D797D5
:1030D00094961D921D921D921C92979754961D9244
:1030E0001D921D921C92579784858823E9F0828156
:1030F0009381428550E0519541955109052E000C70
:10310000660B770BFC0100891189228933894017EE
:1031100051076207730741F0408B518B628B738BB1
:103120001F910F910C94FE0C1F910F9108958F9297
:103130009F92AF92BF92CF92DF92EF92FF921F9336
:10314000CF93DF930E9400187C010E940018BC01FD
:10315000809105048E151F0409F00CF4A8C027E126
:103160002E9DC0012F9D900D1124C0910304D0917C
:103170000404C80FD91FCD80DE800D2C000CEE0892
:10318000FF0889809A80092C000CAA08BB082F81AF
:103190003885032E000C440B550B2C193D094E09A4
:1031A0005F09072E000C880B990B681979098A09A9
:1031B0009B090E94D63E2B813C81032E000C440BC0
:1031C000550B281939094A095B090E94083FBA01C1
:1031D000A9014C0D5D1D6E1D7F1D052E000C660B9B
:1031E000770B8D859E85AF85B88984179507A607CF
:1031F000B70709F45CC04D875E876F87788B898538
:10320000811155C08A85803308F04FC0188161E074
:10321000812F0E949F048A85282F30E0F901EE0F4C
:10322000FF1FE20FF31FEE54F54F1F739081907C48
:10323000912B90831B861C862CE0622F0E94493FB5
:10324000829FB001112430E020E0AB01420F531FF8
:10325000FA01EE0FFF1FE40FF51FEE54F54F9081BA
:1032600096FD16C02F5F3F4F2C30310571F781302E
:1032700051F51092800082E08093810010928500C9
:1032800010928400B19A80916F00826080936F00E9
:10329000EA858E2F90E0FC01EE0FFF1FE80FF91F6B
:1032A000EE54F54F80818064808381E08987DF91CF
:1032B000CF911F91FF90EF90DF90CF90BF90AF9094
:1032C0009F908F900895823061F4109290008093C7
:1032D0009100109295001092940088BB8093710029
:1032E000D7CF833069F41092A00082E08093A100D0
:1032F0001092A5001092A40089BB80937200C8CFE1
:103300008111C6CF1092200182E08093210110929A
:103310002501109224018ABB80937300B9CFEF92EC
:10332000FF921F93CF93DF930E940018EC010E943D
:10333000B4037C010E94C70322E12C9FC0012D9F92
:10334000900D1124C091FC03D091FD03C80FD91F2B
:103350008E858823A1F010E08989811781F0412FA3
:1033600060E0CE010E94220A4889B701149F600DD7
:10337000711D1124CE010E94810A1F5FEDCFDF91E4
:10338000CF911F91FF90EF9008950E940018892B14
:1033900049F010924C0B10924D0B10924E0B109264
:1033A0004F0B08950E94D70560934C0B70934D0B03
:1033B00080934E0B90934F0B0895AF92BF92CF9294
:1033C000DF92EF92FF920F931F93CF93DF9300D082
:1033D0001F92CDB7DEB75C0119821A821B821C8254
:1033E000CE0101967C0110E000E06C01F5018081C6
:1033F00091819C012F5F3F4F318320830E94E31511
:10340000F7018083F8018E3241F00F5F1F4F8FEF7D
:10341000E81AF80A0430110549F7EC0DFD1D108279
:10342000C6010E94033D0F900F900F900F90DF9107
:10343000CF911F910F91FF90EF90DF90CF90BF90B1
:10344000AF900895FB0101900020E9F73197AF019B
:10345000461B570BDC01ED91FC910280F381E02DBE
:103460001994809188108823A1F060915B1180915C
:10347000591190915A110E94E30580919010882370
:1034800041F068E073E08091591190915A110E94C7
:10349000221A10928F101092881080E008958F9257
:1034A0009F92AF92BF92EF92FF920F931F93CF9391
:1034B000DF93CDB7DEB7A1970FB6F894DEBF0FBE8E
:1034C000CDBF7C01FA01CB0119A2223008F42AE019
:1034D0008E010F5D1F4F822E912CB12CA12CBF01AC
:1034E000A50194010E94E63EF901CA016A300CF57B
:1034F000605DD8016E938D01232B242B252B79F74A
:1035000090E080E0109721F0BD01C7010E94221ACF
:10351000A1960FB6F894DEBF0FBECDBFDF91CF915D
:103520001F910F91FF90EF90BF90AF909F908F9061
:103530000895695CDECFCF93909188109923A9F00C
:10354000C82F60915C118091591190915A110E947D
:10355000E3054C2F50E070E060E02AE080915911C3
:1035600090915A11CF910C944F1ACF910895909148
:103570008810911110C091E09093881090938F1053
:10358000482F50E070E060E02AE08091591190915E
:103590005A110C944F1A0895CF93DF93909188108D
:1035A00091110EC0EB010E94B71A809188108823F8
:1035B00019F0CE010E94EA05DF91CF910C94311AE7
:1035C00080E0DF91CF9108950E94D70560934C0B66
:1035D00070934D0B80934E0B90934F0B68EE72E0FF
:1035E00085E00C94CC1A0F931F93CF93DF93109226
:1035F000E5031092F60310924B0B90910004E091BA
:103600000104F091020480E0981721F0168A8F5F80
:103610007796FACF1092000430910504A09103042C
:10362000B091040420E03217D1F019968C911997CB
:10363000882391F01A96EC911A978E2F90E0FC0156
:10364000EE0FFF1FE80FF91FEE54F54F80818F7BBF
:10365000808319961C9219972F5F5796E4CF10928A
:1036600005049091540BE091520BF091530B80E0C4
:10367000981721F010828F5F3E96FACF1092540B6C
:103680009091D703E091FC03F091FD0380E098173F
:1036900031F02685211116868F5F7296F8CF109231
:1036A000D7031092E2039091DA03E091FE03F091C8
:1036B000FF0380E0981731F02085211110868F5F7D
:1036C0003996F8CF1092DA039091F903E091F7035D
:1036D000F091F80380E0981721F016828F5F3B96F7
:1036E000FACF1092F90310E006E08091ED0318176D
:1036F000A0F4C091EB03D091EC03109FC00DD11D3D
:1037000011248B8180FF07C062E08A810E949F04A0
:103710008B818E7F8B831F5FE8CF1092ED034091EA
:10372000EA0350E0E091E803F091E90330E020E0A3
:103730004217530761F110828385813069F4A181BA
:10374000B281D4968C91D497882311F0D4961C9290
:103750002F5F3F4F3C96ECCF823051F4A381B48170
:10376000D3968C91D397882399F3D3961C92F0CF5C
:10377000833019F4A581B681F3CF843019F4A78181
:10378000B085EECF853021F7A185B285E9CF1092C3
:10379000EA031092480B1092470B1092510B1092B3
:1037A000470A1092460A6CEE72E085E0DF91CF91F5
:1037B0001F910F910C94CC1A6FEE72E08FE00C9475
:1037C000CC1A2091460A3091470A820F931F90939A
:1037D000470A8093460A8034964040F06FEC74E0CC
:1037E00085E00E94CC1A90E080E00895C9018A5FCC
:1037F0009B4F089581E08093510B62EF72E081E16D
:103800000C94CC1ACF93DF938AE00E94B71A809170
:10381000470B9091480B892B91F18BE390E00E942C
:10382000E315C82F80918810882379F060915C118E
:103830008091591190915A110E94E3056C2F80914B
:10384000591190915A110E94E305C1E0D0E0809196
:10385000470B9091480BC817D90788F4CE01CB9637
:103860000E94E31590918810992339F0682F809178
:10387000591190915A110E94E3052196E8CFDF91EA
:10388000CF910C94311ACF93DF932091881022238B
:10389000A1F0EC0160915C118091591190915A1145
:1038A0000E94E305209749F0BE0180915911909143
:1038B0005A11DF91CF910C94221ADF91CF91089584
:1038C0000F931F93CF93DF93C82FD62F8A018DE1DB
:1038D0000E94B71AC8010E94431C8D2F0E949B1A98
:1038E0008C2F0E949B1ADF91CF911F910F910C9406
:1038F000311A0F931F93CF93C82F8B0186E00E943C
:10390000B71AC8010E94431C8C2F0E949B1ACF91AA
:103910001F910F910C94311A0F931F93CF93DF9344
:10392000C82FD62F8A018EE10E94B71AC8010E94C3
:10393000431C8D2F0E949B1A8C2F0E949B1ADF9193
:10394000CF911F910F910C94311A0F931F93CF9326
:10395000C82F8B0187E00E94B71AC8010E94431C40
:103960008C2F0E949B1ACF911F910F910C94311AAA
:10397000CF92DF92EF92FF92CF93DF936C01EB0136
:103980008CE10E94B71ACE010E94431C80918810DE
:10399000882321F160915C118091591190915A1105
:1039A0000E94E305C0915911D0915A110D2C000CC1
:1039B000EE08FF082AE0B701A601F7FE0CC06DE291
:1039C000CE010E94E30544275527BA014C195D0931
:1039D0006E097F092AE0CE010E944F1ADF91CF9134
:1039E000FF90EF90DF90CF900C94311ACF93DF933C
:1039F000EC0185E00E94B71ACE010E94431C809121
:103A00008810882321F085EF92E00E94EA05DF917B
:103A1000CF910C94311AFB0101900020E9F7319706
:103A2000AF01461B570BDC01ED91FC910284F3853D
:103A3000E02D1994CF92DF92EF92FF920F931F9394
:103A4000CF93DF938C01EB01FC01D0886D2D70E0EA
:103A5000FE0101900020E9F7CF0101978C1B9D0B1F
:103A600086179707B0F4681B790B76956795D82E63
:103A7000C8010E94220ACC2EEC2EFD2E8E2D8C1910
:103A80008D1548F4F70161917F01C8010E94690A10
:103A9000F5CF60E0EDCFDF91CF911F910F91FF90B7
:103AA000EF90DF90CF90089585ED8093BC008091DA
:103AB000A60B9091A70BA091A80BB091A90B07960C
:103AC000A11DB11D23E0B695A795979587952A95D9
:103AD000D1F72091BC0024FD03C01092A40B0895DF
:103AE0004091A60B5091A70B6091A80B7091A90B68
:103AF000452B462B472B69F30097A105B10541F0F3
:103B000025E32A95F1F700000197A109B109E1CF5A
:103B10008091A50B0C944D084F925F926F927F920B
:103B20008F929F92AF92BF92CF92DF92EF92FF92CD
:103B3000CF93DF93EC016A017B0120E030E0A90123
:103B4000CB01B6010E94993D87FF04C0F7FAF094BB
:103B5000F7F8F0948C8C9D8CAE8CBF8CA7019601ED
:103B6000C501B4010E94993D882309F449C06CA99C
:103B70007DA98EA99FA90E94A03D2B013C01A70110
:103B80009601C501B4010E9400409B01AC01C30134
:103B9000B2010E94FF3D0E9472406CAB7DAB8EABC8
:103BA0009FABA701960160E070E080E090E40E9486
:103BB00000400E94B34026E53EE04DE25FE30E94F4
:103BC000FF3D20E034E244E759E40E94FF3D68AF46
:103BD00079AF8AAF9BAFCC8EDD8EEE8EFF8ECE019D
:103BE000DF91CF91FF90EF90DF90CF90BF90AF909B
:103BF0009F908F907F906F905F904F900C94FE0CF1
:103C0000DF91CF91FF90EF90DF90CF90BF90AF907A
:103C10009F908F907F906F905F904F900895EF925C
:103C20000F93CF93DF93EC018EEC92E0998388831E
:103C30006B831C861D861E861F86188A198A1A8A1F
:103C40001B8A1C8A1D8A1E8A1F8A80E090E0A0E8D9
:103C5000BFE3888F998FAA8FBB8F1C8E1D8E1E8EFF
:103C60001F8E88A399A3AAA3BBA31CA21DA21EA258
:103C70001FA261E070E07DA76CA73FEF3FA718A6E9
:103C800019A61AA61BA64C832D830E83EF821EA6AF
:103C90001CAA1DAA1EAA1FAA18AE19AE1AAE1BAEE8
:103CA0001CAE1DAE1EAE1FAEFE01E05CFF4F80835A
:103CB0009183A283B3831A82188619861A861B867B
:103CC000CE010E94DD0A40E050E060E87FE3CE01D3
:103CD000DF91CF910F91EF900C948C1DCF92DF92DA
:103CE000EF92FF920F931F93CF93DF930E940018E0
:103CF000D82F0E9400187C010E9400188C0180912E
:103D0000540BD817C0F58091520B9091530B9C0126
:103D10004EE0D49F200D311D1124E90188818823B4
:103D200059F0B70190E080E00E949E3DAB01BC01DC
:103D30008A819B810E94500E88818823E1F0B8011E
:103D400090E080E00E949E3D6B017C0120E030E02D
:103D5000A9010E94993D882371F0B701A6018A81CB
:103D60009B81DF91CF911F910F91FF90EF90DF909A
:103D7000CF900C948C1DDF91CF911F910F91FF90EC
:103D8000EF90DF90CF9008958F929F92AF92BF9265
:103D9000CF92DF92EF92FF92CF93DF930E940018B1
:103DA000D82FC82F0E946303882309F495C081E0AF
:103DB0008093521180935311809154119091551119
:103DC0000E94213D6B017C018091540BC81708F0C3
:103DD00078C08091520B9091530B9C014EE0D49F80
:103DE000200D311D1124E9018881882309F469C05F
:103DF00019828E819F81A885B985C816D906EA06E1
:103E0000FB0609F45EC08A819B81DC011C968D90C3
:103E10009D90AD90BC901F972B85222351F02D854E
:103E2000222339F0ED91FC910280F381E02D199568
:103E30001D868C85882379F0C814D904EA04FB0414
:103E400054F48E819F81A885B985C816D906EA06E3
:103E5000FB060CF41C868C85811110C08C149D040B
:103E6000AE04BF045CF48E819F81A885B9858C1552
:103E70009D05AE05BF0514F481E08C878A819B8186
:103E80004A852C85429FA0011124052E000C660B4B
:103E9000770B4C0D5D1D6E1D7F1DFC018088918888
:103EA000A288B388481559056A057B0531F0408B17
:103EB000518B628B738B0E94FE0CCE82DF82E88670
:103EC000F986DF91CF91FF90EF90DF90CF90BF9078
:103ED000AF909F908F90089510925311C12CD12CC8
:103EE000760172CFBF92CF92DF92EF92FF920F9343
:103EF0001F93CF93DF93EC01E62EC42ED22EFC88C5
:103F0000FF0C0F2D10E0A80170E060E004960E9405
:103F10000841EE2DEE0FEC0FFD2FF11DC582D4826E
:103F200060E08B810E9471040C5F1F4F0C0F1D1FFE
:103F3000FF20E1F0F801B2908F0188E0C82ED12C6B
:103F400090E8E92E6B2D6E2189810E94710461E059
:103F50008A810E94710460E08A810E947104E69463
:103F6000F1E0CF1AD10871F7FA94E2CF61E08B81CA
:103F7000DF91CF911F910F91FF90EF90DF90CF9045
:103F8000BF900C9471048F929F92AF92BF92CF9288
:103F9000DF92EF92FF920F931F93CF93DF930E94D4
:103FA0000018EC010E940018882E0E94B4035C01E6
:103FB0000E9400186C010E94001847E14C9F90017C
:103FC0004D9F300D11240091010410910204020F45
:103FD000131FF8012689222309F43CC0C7E0D0E072
:103FE000912C7C01FF24DD246C2F4C2F4F5FC701E7
:103FF0000C2E02C0959587950A94E2F780FF28C0A1
:10400000F801A4898A1618F5F501E90DF11D8081E2
:1040100087FD80E296010C2E02C0359527950A9403
:10402000E2F720FD8068F8019081992311F06A176A
:1040300070F4E82FEF77F0E0E15BFB4F24919111F2
:1040400016C087FD2068682DC8010E94721F9394D6
:10405000219750F6DF91CF911F910F91FF90EF9034
:10406000DF90CF90BF90AF909F908F900895220FD8
:1040700087FD2160A150BB0BAC1BBD0BA00FB11F76
:1040800014962C9341E0C8010E946E10E0CF1F935C
:10409000CF93DF93DC012C9121110CC054962C910D
:1040A000621700F521E024274CE0DF91CF911F91AA
:1040B0000C94721F5596EC91F0E0F595E7951E2F44
:1040C000411101C01860EC010E94671060E8610FA7
:1040D00040E0CE010E94F60FCE01DF91CF911F91FB
:1040E0000C945010DF91CF911F9108950F931F935F
:1040F000CF93DF93FC0126892223C1F16217B0F52B
:10410000442391F12FEF240F203108F02FE0D62F18
:104110008C01FC01258B8081811110C08489681776
:1041200020F44AE0C8010E94721F40E06D2FC801D0
:10413000DF91CF911F910F910C944720C0E0413047
:1041400031F02695423009F421E0C22FC860C80141
:104150000E94671060E86C0F40E0C8010E94F60FF3
:10416000C8010E945010E1CF41E0E2CFDF91CF9132
:104170001F910F9108950F931F93CF930E940018E2
:104180008C010E940018C82F0E94001897E1909F90
:104190009001919F300D1124E0910104F0910204EF
:1041A000482F6C2FCF01820F931FCF911F910F913A
:1041B0000C9476200C94BB20EF92FF920F931F93E8
:1041C000CF93DF93F82EC0E087E1E82E80910004C2
:1041D000C817B0F40091010410910204CE9D000DA7
:1041E000111D1124D0E0F80186898D1739F04F2D6B
:1041F0006D2FC8010E944720DF5FF5CFCF5FE6CF6C
:10420000DF91CF911F910F91FF90EF9008950F9341
:104210001F93CF93DF93EC01062F18814C89111166
:1042200010C0641748F41F5F20E0412F602FCE01BB
:104230000E94721F1830B9F7DF91CF911F910F9133
:10424000089550E070E060E004960E9408414C89B7
:104250006FEF640FCE01DF91CF911F910F910C94FE
:104260006E100F931F93CF93DF93EC0110E004E0E7
:1042700020E030E0A901612FCE010E9415141F5FDC
:104280001032A9F7A39680E1FE0111928A95E9F711
:10429000DF91CF911F910F9108950F931F93CF93AB
:1042A000DF93EC0110E004E020E030E0A901612F91
:1042B000CE010E9415141F5F1032A9F7A39680E16A
:1042C000FE0111928A95E9F7DF91CF911F910F912D
:1042D0000895FF920F931F93CF93DF930E940018CE
:1042E000EC010E94B4038C010E940018F82E29E012
:1042F0002C9FC0012D9F900D1124C091FE03D091E1
:10430000FF03C80FD91F8885882391F16BE073E004
:10431000C8010E94513D01E010E0009709F10E94A0
:10432000033D9885992391F0982F9770980101C0CB
:10433000220F9A95EAF7869586958695FE01E80FF5
:10434000F11D8481FF2049F0282B24836BE073E06A
:1043500090E080E00E94513DE0CF20952823F5CFEA
:10436000CE01DF91CF911F910F91FF900C944D16CC
:10437000DF91CF911F910F91FF9008954F925F921F
:104380006F927F928F929F92AF92BF92CF92DF9265
:10439000EF92FF920F931F93CF93DF930E94001829
:1043A000EC018091EA038C171D0609F00CF48CC215
:1043B0000E9400188C010E94B4035C010E94C70394
:1043C0002CE02C9FC0012D9F900D1124E091E8035B
:1043D000F091E903E80FF91F8081882309F474C282
:1043E0008385813009F0E1C2C181D2814AE050E089
:1043F00070E060E0C5010E94003CF62EE72E0F3F02
:10440000100799F4CE01DF91CF911F910F91FF908A
:10441000EF90DF90CF90BF90AF909F908F907F9064
:104420006F905F904F900C944D210E3F3FEF13071C
:1044300049F30115110531F58AA980688AAB6FE04F
:10444000CE010E9488158AA98F7B8AAB6FE0CE01CE
:104450000E9488158CA18E7F8CA36F2D7E2DCE019E
:10446000DF91CF911F910F91FF90EF90DF90CF9050
:10447000BF90AF909F908F907F906F905F904F9084
:104480000C94AC150130110589F48AA98F778AAB99
:104490006FE0CE010E9488158AA980648AAB6FE024
:1044A000CE010E9488158CA18160D6CF0230110503
:1044B000C9F5C701092F182F083E83E0180710F02F
:1044C00007EE13E0EAE0EE2EF12CC801B7010E94DE
:1044D000633F6B01482F65E0CE010E949615C6012F
:1044E000B7010E94633F482F64E0CE010E949615F9
:1044F000C80164E670E00E94633F462F63E0CE018E
:10450000DF91CF911F910F91FF90EF90DF90CF90AF
:10451000BF90AF909F908F907F906F905F904F90E3
:104520000C9496150330110509F060C0862E972E65
:104530005C01E0EA8E16E6E89E06E1E0AE06B10414
:1045400038F07FE9872E76E8972EAA24A394B12C21
:104550006AE0C62ED12CE12CF12CC501B401A701D3
:1045600096010E94E63E29013A01462F6AE0CE01FB
:104570000E949615C301B201A70196010E94E63E72
:10458000462F69E0CE010E949615C501B40124E6CC
:1045900030E040E050E00E94E63ECA01B901A701C8
:1045A00096010E94E63E462F68E0CE010E949615D5
:1045B000C501B40128EE33E040E050E00E94E63E41
:1045C000CA01B901A70196010E94E63E462F67E0A5
:1045D000CE010E949615C501B40120E137E240E00A
:1045E00050E00E94E63E422F66E089CF043011057C
:1045F00009F04AC0C701092F182F89A998A92FA52A
:104600002E7F9E7F8E7F0031F7E21F07B4F5013FBA
:1046100038ED13073CF017FD07C00115110579F5BA
:1046200098AB08C001EF18ED11950195110998ABF1
:104630009BA9892B89AB2FA74CE06EE0CE010E948D
:1046400096154CE06DE0CE010E949615C80164E617
:1046500070E00E94773FCB016AE070E00E94773FF4
:10466000482F6CE0CE010E949615C80168EE73E0F9
:104670000E94773F462F6BE042CF0FE017E23BA945
:10468000932B98AB832BD6CF0530110509F045C08D
:10469000862F99A928A93FA54BA96436E4F56D3961
:1046A0002CF067FD04C02E7F242B03C08DE981957B
:1046B0002E7F28AB9E7F942B99AB31603FA76AE099
:1046C0000E94553F182F492F6CE0CE010E9496158D
:1046D000412F6BE0CE010E94961588A9817088ABAE
:1046E00089A9817089AB6DE0CE010E9488156EE0CA
:1046F000CE01DF91CF911F910F91FF90EF90DF904E
:10470000CF90BF90AF909F908F907F906F905F9071
:104710004F900C94881583E6C6CF06301105B9F486
:104720001BE061111AE0412F60E0CE010E94961556
:10473000412F61E0CE010E949615412F62E0CE012B
:104740000E9496158CA18E7F8CA36FE0D1CF07308D
:10475000110581F41BE061111AE0412F63E0CE01E5
:104760000E949615412F64E0CE010E949615412FBC
:1047700065E0C5CE08301105D1F41BE061111AE0E7
:10478000412F66E0CE010E949615412F67E0CE01D1
:104790000E949615412F68E0CE010E949615412F88
:1047A00069E0CE010E949615412F6AE0A8CE09303B
:1047B000110511F589A9F11015C08E7F89AB1BE099
:1047C000412F6BE0CE010E949615412F6CE0CE0187
:1047D0000E949615412F6DE0CE010E949615412F43
:1047E0006EE08DCE816089AB88A98E7F88AB8FA566
:1047F0008E7F8FA71AE0E4CF0A30110551F48EA105
:104800008E7F91E0F11001C090E0892B8EA363E0D0
:104810006FCF0B30110551F488A58E7F91E0F11018
:1048200001C090E0892B88A765E062CF0C301105AC
:1048300051F48EA58E7F91E0F11001C090E0892B9C
:104840008EA76BE055CF0D30110509F085C08CA502
:104850008E7F9AA99F7DF11048C090629AAB8160CB
:104860008CA76FE0CE010E94881569E0CE010E94FE
:1048700088158AA98F7E8AAB8BA58E7F8BA76FE068
:10488000CE010E94881568E0CE010E9488158AA991
:1048900084608AAB8AA581608AA76FE0CE010E94FE
:1048A000881567E0CE010E9488158AA9877F8AABA8
:1048B00089A58E7F89A76FE0CE010E94881566E0EA
:1048C000CE010E94881518AEDF91CF911F910F91F4
:1048D000FF90EF90DF90CF90BF90AF909F908F9020
:1048E0007F906F905F904F9008959AAB8CA76FE088
:1048F000CE010E94881569E0CE010E9488158AA920
:1049000080618AAB8BA581608BA76FE0CE010E948E
:10491000881568E0CE010E9488158AA98B7F8AAB32
:104920008AA58E7F8AA76FE0CE010E94881567E076
:10493000CE010E9488158AA988608AAB89A581600A
:1049400089A76FE0CE010E94881566E0CE010E9423
:10495000881581E088AFB8CF0E30110581F48AA99F
:104960008F7721E030E0F11002C030E020E0369592
:10497000322F222737952795822B8AABE6CE0F3030
:10498000110571F48AA98F7B21E030E0F11002C09B
:1049900030E020E046E0220F331F4A95E1F7ECCFEC
:1049A0000031110509F090CF58CD823009F0F3C0E5
:1049B000C381D481C5010E94033D0F3F100799F4C4
:1049C000CE01DF91CF911F910F91FF90EF90DF907B
:1049D000CF90BF90AF909F908F907F906F905F909F
:1049E0004F900C9431210E3FFFEF1F0749F3011543
:1049F000110509F05AC08C01803127E2920708F0B6
:104A000051C060E0803D974008F061E0CE010E9417
:104A100002153AE0E32EF12CC801B7010E94633F72
:104A20006B01482F63E0CE010E94EC14C601B70170
:104A30000E94633F482F62E0CE010E94EC14C8013F
:104A400064E670E00E94633FCB01B7010E94633FC0
:104A5000482F61E0CE010E94EC14C80168EE73E0BB
:104A60000E94633F462F60E0CE010E94EC1460E09C
:104A7000CE010E948E148EA180618EA363E0CE01D0
:104A8000DF91CF911F910F91FF90EF90DF90CF902A
:104A9000BF90AF909F908F907F906F905F904F905E
:104AA0000C9462140FE017E2B0CF0130110509F049
:104AB00046C08C01003187E21807F0F560E0003D48
:104AC000E7E01E0708F061E0CE010E9402152AE02F
:104AD000E22EF12CC801B7010E94633F6B01482F01
:104AE00063E0CE010E94EC14C601B7010E94633F4F
:104AF000482F62E0CE010E94EC14C80164E670E029
:104B00000E94633FCB01B7010E94633F482F61E0E1
:104B1000CE010E94EC14C80168EE73E00E94633F6E
:104B2000462F60E0CE010E94EC1461E0CE010E94AD
:104B30008E148EA18F7EA1CF0FE017E2C4CF02307A
:104B4000110509F0C1CE0197D1F445E060E0CE0136
:104B50000E94EC144BE061E0CE010E94EC144CE0AA
:104B600062E0CE010E94EC144DE063E0CE010E94B1
:104B7000EC1460E0CE010E94021560E0D7CF4DE05A
:104B800060E0CE010E94EC144DE061E0CE010E9495
:104B9000EC144DE0E5CF833009F074C0C581D681B7
:104BA000C5010E94033D0F3F100799F4CE01DF912C
:104BB000CF911F910F91FF90EF90DF90CF90BF901A
:104BC000AF909F908F907F906F905F904F900C94DC
:104BD00031210E3F2FEF120749F301151105B9F4EA
:104BE00061E0892B09F460E0CE01DF91CF911F9144
:104BF0000F91FF90EF90DF90CF90BF90AF909F907C
:104C00008F907F906F905F904F900C946F15013054
:104C10001105B9F461E0892B09F460E0CE01DF9160
:104C2000CF911F910F91FF90EF90DF90CF90BF90A9
:104C3000AF909F908F907F906F905F904F900C946B
:104C4000021502301105A1F4BC01CE01DF91CF9114
:104C50001F910F91FF90EF90DF90CF90BF90AF909A
:104C60009F908F907F906F905F904F900C941E1547
:104C70000330110509F028CEBC01CE010E941E159B
:104C800061E0B2CF843009F0F8C0C781D085C5019A
:104C90000E94033D0F3F100799F4CE01DF91CF91A1
:104CA0001F910F91FF90EF90DF90CF90BF90AF904A
:104CB0009F908F907F906F905F904F900C943121D8
:104CC0000E3FEFEF1E0749F30115110531F461E0C6
:104CD000892B09F07CC060E07AC001301105D1F465
:104CE00001E0892B09F400E00295007F7E01F3E2E8
:104CF000EF0EF11C10E0F70181917F0131978F7E5B
:104D0000802B8083612FCE010E9462141F5F1630BA
:104D100091F7DACD0230110509F06CC04C01B12CCD
:104D2000A12C9AE0C92ED12CE12CF12CC501B401A3
:104D3000A70196010E94E63E29013A01462F65E04F
:104D4000CE010E947F14C301B201A70196010E9407
:104D5000E63E462F64E0CE010E947F14C501B401F7
:104D600024E630E040E050E00E94E63ECA01B9018E
:104D7000A70196010E94E63E462F63E0CE010E9405
:104D80007F14C501B40128EE33E040E050E00E94FA
:104D9000E63ECA01B901A70196010E94E63E462FF0
:104DA00062E0CE010E947F14C501B40120E137E228
:104DB00040E050E00E94E63E422F61E0CE010E94BA
:104DC0007F1440E060E0CE010E947F1461E0CE01DC
:104DD000DF91CF911F910F91FF90EF90DF90CF90D7
:104DE000BF90AF909F908F907F906F905F904F900B
:104DF0000C948E140330110509F066CD8C018031BE
:104E0000974210F00FE017E28AE0E82EF12CC8017B
:104E1000B7010E94633F6B01482F64E0CE010E94FE
:104E20007F14C601B7010E94633F482F63E0CE01A3
:104E30000E947F14C80164E670E00E94633FCB01CA
:104E4000B7010E94633F482F62E0CE010E947F14A9
:104E5000C80168EE73E00E94633F462F61E0CE0117
:104E60000E947F144BE060E0CE010E947F144BE073
:104E700065E0CE010E947F142ECF853009F024CD4D
:104E8000C185D285C5010E94033DBC010F3F1007BB
:104E900099F4CE01DF91CF911F910F91FF90EF9088
:104EA000DF90CF90BF90AF909F908F907F906F904A
:104EB0005F904F900C9431210E3F3FEF130749F361
:104EC00001151105A9F44BE060E0CE01DF91CF910F
:104ED0001F910F91FF90EF90DF90CF90BF90AF9018
:104EE0009F908F907F906F905F904F900C94701474
:104EF0000130110511F44CE0E7CF02301105C1F487
:104F000081E0672B09F480E0682FCE01DF91CF911B
:104F10001F910F91FF90EF90DF90CF90BF90AF90D7
:104F20009F908F907F906F905F904F900C948E1415
:104F30000330110599F4CE01DF91CF911F910F91AC
:104F4000FF90EF90DF90CF90BF90AF909F908F90A9
:104F50007F906F905F904F900C949B1404301105DC
:104F600021F4CE010E949B14AECF0530110509F04B
:104F7000ABCCCE010E949B14BECFFF920F931F9328
:104F8000CF93DF938C01EB01F8800E94C03EF816AE
:104F900021F06F2DC8010E94C83ECE01DF91CF9154
:104FA0001F910F91FF900895AF92BF92CF92DF9221
:104FB000EF92FF920F931F93CF93DF930E94B4035E
:104FC0006C01EC0109900020E9F72197C81BD90B6F
:104FD000DD27E090470BF090480BC70101968C0F3E
:104FE0009D1F883D954008F053C05E018FEFA81AC1
:104FF000B80A2BE3E20EF11C95012E0D3F1D8091A6
:10500000C90F9091CA0F8217930778F010E000E063
:10501000B601600F711FC701800F911F0E94BD274D
:105020000F5F1F4F0A151B0598F34091470B5091D6
:10503000480BC40FD51FD093480BC093470B8091EA
:105040008810811147C085E00E94B71A80918810AE
:10505000882391F060915C118091591190915A11BF
:105060000E94E305AE0170E060E02AE080915911F2
:1050700090915A110E944F1ADF91CF911F910F9179
:10508000FF90EF90DF90CF90BF90AF900C94311ACB
:105090008091881081111EC085E00E94B71A80910E
:1050A0008810882349F360915C1180915911909187
:1050B0005A110E94E305C0915911D0915A116DE225
:1050C000CE010E94E3052AE041E050E060E070E09C
:1050D000CE01D0CFDF91CF911F910F91FF90EF9034
:1050E000DF90CF90BF90AF900895CF93DF930E9451
:1050F000B403FC0190E3ABE0B2E001900D929A950D
:10510000E1F78091C90F9091CA0F892B29F063E2D2
:1051100090E080E00E94C83E8091C90F9091CA0F34
:10512000C09760F0D0E0C0E0BE01655F7D4F219682
:10513000CE010E94BD27CF32D105B1F780918810F2
:1051400081110BC085E00E94B71A8BE092E00E94AB
:10515000431CDF91CF910C94311ADF91CF910895C8
:10516000CF93DF930E94D7056115710581059105E5
:1051700011F00E94F73B83E5809300028EE4809358
:1051800001028DE2809302028093060210920A02CD
:105190000E94A83B2FEF3FE040E050E00E94083F14
:1051A000E0E0F2E093E0862F8F7020E3280F2A33AF
:1051B000D0F5238324E0769567952A95E1F7915001
:1051C00031969111F0CF0E94A83B2FEF3FE040E0D5
:1051D00050E00E94083FE0E0F2E093E0862F8F70FD
:1051E00020E3280F2A3310F5278384E0769567950E
:1051F0008A95E1F7915031969111F0CF8091C90FC6
:105200009091CA0FCB9760F0C0E3D0E0BE0160532D
:105210007E4FCE010E94BD272196CB33D105B1F739
:10522000DF91CF910895885C8383C4CF895C8783A5
:10523000DCCF0E94B02880918810811109C08AE0DB
:105240000E94B71A80E092E00E94431C0C94311A2D
:1052500008950F931F93CF93DF9380E390E00E9414
:10526000E3158335B9F581E390E00E94E3158E34B0
:1052700089F58091C90F9091CA0FCB9770F000E02B
:1052800012E0C0E3D0E0CE010E94C03EF80181935D
:105290008F012196CB33D105B1F78AE00E94B71A6E
:1052A00080918810882321F086E494E00E94EA052A
:1052B0008BE092E00E94431C80E092E00E94431C3D
:1052C0008DE093E00E94431CDF91CF911F910F91DD
:1052D0000C94311A0E94B0288091C90F9091CA0F86
:1052E000CC97D8F260E08BE390E00E94C83ED5CF27
:1052F0002F923F924F925F926F927F928F929F92E6
:10530000AF92BF92CF92DF92EF92FF920F931F93D3
:10531000CF93DF93CDB7DEB7AA970FB6F894DEBF71
:105320000FBECDBF8091470B9091480B892B11F494
:105330000C9470339BE3E92EF12CFAA2E9A21CA293
:105340001BA2CE0181960E94DD19082F882311F43B
:105350000C947033F8A2EF8ECE014F960E94DD19A7
:105360009E012F5F3F4F290192E1D9011D929A952D
:10537000E9F78823C9F0F201E80FF11D80818F5F02
:1053800080836AE3CE014F960E941D16182FCE012E
:105390004F960E94DD19882361F11111ECCF6CE06A
:1053A00073E085E00E94CC1AFE013796FEA3EDA3C0
:1053B000ABE42A2EA6E43A2EEFEFE00FE13108F03D
:1053C00040C2F0E08827E851F64D8F4F0C948B3F98
:1053D000B82B162EFC2B272CEC2CD22D8A2E162E19
:1053E000EC2CF82F9F2F5A30212CBD30EC2C272C81
:1053F0003F311123A1F21A81B5E01B9F70011124E6
:10540000C7010E94F70E811169C183E193E00E94F8
:10541000F61C1C81E12EF12CEE0CFF1CC7010E9432
:10542000F70E882309F468C1C7010E94E11B0097A9
:1054300019F0DC0111961C9290934A0B8093490B52
:105440001093D1031D81F988E12FEF0DFF27FF1F76
:1054500027E12E9F60012F9FD00C1124C6010E94CE
:10546000F70E882309F44DC1C6010E94E11BFC011F
:10547000892B49F08FEF8083818382838383148A11
:105480008FE0858B168AF0930204E09301041F0DD0
:105490001093D203E8888E812E2D280F3327331FD7
:1054A000EA84E20EF32EF11C8EE08E9D60018F9D4A
:1054B000D00C1124C6010E94F70E882309F426C1DE
:1054C000C6010E94E11B009711F0DC011C92909331
:1054D000530B8093520BE092D3031F81B7E11B9FC4
:1054E00070011124C7010E94F70E882309F418C126
:1054F000C7010E94E11B0097B9F02091420B2033B5
:1055000008F009C131E0320F3093420BFC012287D1
:1055100030E0F901EE0FFF1FE20FF31FEE54F54FDD
:1055200028EB3BE0328321839093040480930304AF
:105530001093D4031985FB80E12FEF0DFF27FF1F88
:105540002FE12E9F60012F9FD00C1124C6010E94D5
:10555000F70E882309F4E9C0C6010E94E11B0097F9
:1055600019F0DC0112961C929093F5038093F403DA
:105570001F0D1093D5031885B2E11B9F70011124F4
:10558000C7010E94F70E882309F4D4C0C7010E9406
:10559000E11BFC01892B41F01382128288EA92E020
:1055A0009183808311861686F093FD03E093FC03BC
:1055B0001093D6031C85EEE11E9F70011124C701D4
:1055C0000E94F70E882309F4BAC0C7010E94E11BAC
:1055D000FC01892B61F080E19F012A5F3F4FD901D7
:1055E0001D928A95E9F7178A168A108E158EF09308
:1055F000E103E093E0031093D8031B85B9E01B9F00
:1056000070011124C7010E94F70E882309F49CC081
:10561000C7010E94E11B009711F0FC0110869093D6
:10562000FF038093FE031093D9031D85FBE01F9FAA
:1056300070011124C7010E94F70E882309F489C064
:10564000C7010E94E11B009741F0DC0116961C92F5
:10565000FC0117821086118612869093F8038093BE
:10566000F7031093DB031F85F6E01F9F70011124E1
:10567000C7010E94F70E882309F470C0C7010E9479
:10568000E11BFC01892B59F01092F1031092F003F9
:1056900089E693E091838083138215821482F093CC
:1056A000EC03E093EB031093DC031A892CE0129FC8
:1056B00070011124C7010E94F70E882309F453C01A
:1056C000C7010E94E11B009711F0DC011C9290932E
:1056D000E9038093E8031093DD0366CEC7010E94BF
:1056E000E11B009711F0FC0114829093E403809376
:1056F000E3031093D0038DCE8AE193E00E94F61C61
:10570000A1CE81E293E00E94F61CC4CE8AE293E02F
:105710000E94F61CE2CE2FEFDC011A962C9304CFE8
:1057200082E393E00E94F61C05CF88E393E00E9499
:10573000F61C21CF81E493E00E94F61C3BCF85E468
:1057400093E00E94F61C59CF8EE493E00E94F61C71
:105750006CCF8CE593E00E94F61C85CF82E793E046
:105760000E94F61CA2CF8BE793E00E94F61C1CCE91
:10577000CE0181960E94DD19F090E5039091D0034F
:10578000F91689F12BA13CA10091E3031091E403E8
:10579000F5E0FF9E000D111D1124D80114961C92F6
:1057A000149712968C9312972253344F2D933C9357
:1057B00062E00E949F04F80182810E94480421E077
:1057C000892B09F420E0D80113962C93139781E0DC
:1057D00014968C9385EA9CE19093E7038093E6030B
:1057E000F394F092E503BE016D5D7F4FCE0181968B
:1057F0000E94EE15182F4DC5CE0181960E94DD192D
:10580000F0904B0B9091D103F916D9F00F2D10E0C9
:10581000000F111F2091490B30914A0B020F131FEB
:10582000F8011182808361E00E949F04D8011196E3
:105830001C92119760E08C910E947104F394F09295
:105840004B0B6AE3CE0181960E941D16D3CFB12C7B
:10585000003129F4CE0181960E94DD19B82ECE01C7
:1058600081960E94DD19982ECE0181960E94DD1945
:10587000782ECE0181960E94DD19A82ECE01819648
:105880000E94DD19882ECE0181960E94DD19082F15
:10589000F09000048091D203F81699F21B2DC0906D
:1058A0000104D0900204B7E1FB9EC00CD11C11246E
:1058B000F601148A8FE0858B168AB0829182A282CB
:1058C0007382B11045C0802F093008F088E0D601FE
:1058D00054968C9361E0892D0E949F0461E0F6014B
:1058E00082810E949F0461E0D60113968C910E94F0
:1058F0009F0461E0F60183810E947104D6015496F1
:105900008C91181708F04CC020E04FE0612FC601C1
:105910000E94721FF6018081811109C084891817C5
:1059200030F427E04BE0612FC6010E94721F20E097
:1059300049E0612FC6010E94721F612FC6010E94BB
:10594000072141E0612FC6010E9447201F5FD6CF8B
:10595000FDEF84E0BF1286E0D60154968C9362E09E
:105960008A2D0E949F0462E0F60181810E949F04BB
:1059700060E0D60112968C910E94710460E0F601FD
:1059800081810E94710460E0C6010E9407218FE0BE
:10599000D60155968C9341E060E0C6010E944720F5
:1059A000F601068B10E0D60156968C91181780F4FC
:1059B000482D612FC6010E94762040E0612FC6016C
:1059C0000E944720612FC6010E9407211F5FEBCF75
:1059D000F394F092000435CFCE0181960E94DD1938
:1059E000F82ECE0181960E94DD19D82ECE01819627
:1059F0000E94DD19E82ECE0181960E94DD19A82EA5
:105A0000093021F010E00F3009F047C0CE01819637
:105A10000E94DD19182F0F3009F03FC0CE0181968A
:105A20000E94DD19082FCE0181960E94DD19B82E43
:105A3000CE0181960E94DD19C82E8091540B909161
:105A4000D303891709F4FDCE6090520B7090530B6D
:105A5000BEE08B9F600C711C1124F301108284E462
:105A600090E00E94F70E81111CC06BE273E085E0AC
:105A70000E94CC1A0091540B112359F08091520BC3
:105A80009091530BBEE00B9F800D911D11240E943D
:105A9000030F0F5F0093540BD4CEC12CB12C00E048
:105AA000CCCF013009F463C0023009F46DC001119C
:105AB000E1CF84E490E0FE104AC0DA1048C00E94B2
:105AC000E11B4C01892B49F0E5E0EE2E04E02D2D81
:105AD0004F2D61E0C4010E940F1ED30113969C92CA
